:020000040800F2
:100000000000022011380008413000084330000889
:100010004530000847300008493000080000000063
:100020000000000000000000000000004B3000084D
:100030004D300008000000004F300008513000082B
:10004000613800086138000861380008613800082C
:10005000613800086138000861380008613800081C
:10006000613800086138000861380008613800080C
:1000700061380008613800086138000861380008FC
:1000800061380008613800086138000861380008EC
:1000900061380008613800086138000861380008DC
:1000A00061380008613800086138000861380008CC
:1000B00061380008613800086138000861380008BC
:1000C00061380008613800086138000861380008AC
:1000D000613800081D31000871310008CD31000879
:1000E000613800086138000861380008613800088C
:1000F000613800086138000861380008613800087C
:10010000613800086138000861380008613800086B
:10011000613800086138000861380008613800085B
:10012000613800086138000861380008613800084B
:10013000613800086138000861380008613800083B
:10014000613800086138000861380008613800082B
:100150006138000861380008613800082132000861
:10016000613800086138000861380008613800080B
:10017000613800086138000861380008000000009C
:08018000613800086138000835
:1001880010B5054C237833B9044B13B10448AFF3C9
:1001980000800123237010BD0C0000200000000027
:1001A800BC38000808B5034B1BB103490348AFF33B
:1001B800008008BD0000000010000020BC380008C6
:1001C80053B94AB9002908BF00281CBF4FF0FF31B6
:1001D8004FF0FF3000F07AB9ADF1080C6DE904CEAC
:1001E80000F006F8DDF804E0DDE9022304B070470A
:1001F8002DE9F0478C460D460446089E002B51D148
:100208008A4217466DD9B2FA82FEBEF1000F0BD0B2
:10021800CEF1200C01FA0EF520FA0CFC02FA0EF7CA
:100228004CEA050C00FA0EF44FEA174A250CBCFB01
:10023800FAF81FFA87F90AFB18CC45EA0C4508FBBF
:1002480009F3AB420AD9ED1908F1FF3280F0238196
:10025800AB4240F22081A8F102083D44ED1AA4B255
:10026800B5FBFAF00AFB105544EA054400FB09F90E
:10027800A14509D9E41900F1FF3380F00A81A145AD
:1002880040F2078102383C44A4EB090440EA0840E4
:100298000021002E61D024FA0EF40023346073602C
:1002A800BDE8F0878B4207D9002E54D0002186E89C
:1002B80021000846BDE8F087B3FA83F1002940F031
:1002C8008E80AB4202D3824200F2FA80841A65EB38
:1002D80003050120AC46002E3FD086E81010BDE88B
:1002E800F08712B90127B7FBF2F7B7FA87FEBEF11C
:1002F800000F34D1EB1B3A0C1FFA87FC0121B3FB2A
:10030800F2F8250C02FB183345EA03450CFB08F309
:10031800AB4207D9ED1908F1FF3002D2AB4200F227
:10032800D1808046ED1AA3B2B5FBF2F002FB10555E
:1003380043EA05440CFB00FCA44507D9E41900F185
:10034800FF3302D2A44500F2B8801846A4EB0C048F
:1003580040EA08409DE731463046BDE8F087CEF1D7
:10036800200405FA0EF307FA0EF720FA04F83A0CFF
:1003780025FA04F448EA0308B4FBF2F14FEA1845F9
:1003880002FB11441FFA87FC45EA044501FB0CF304
:10039800AB4200FA0EF409D9ED1901F1FF3080F0F3
:1003A8008A80AB4240F2878002393D44EB1A1FFA3B
:1003B80088F5B3FBF2F002FB103345EA034500FB76
:1003C8000CF3AB4207D9ED1900F1FF386FD2AB42FD
:1003D8006DD902383D44EB1A40EA01418FE7C1F17B
:1003E800200722FA07F88B4005FA01F448EA0303CC
:1003F80020FA07FE4FEA134CFD404EEA040EB5FB07
:10040800FCF94FEA1E440CFB19551FFA83F844EA1D
:10041800054509FB08F4AC4202FA01F200FA01FAB8
:1004280008D9ED1809F1FF3043D2AC4241D9A9F1FE
:1004380002091D442D1B1FFA8EFEB5FBFCF00CFBB8
:1004480010554EEA054400FB08F8A04507D9E41802
:1004580000F1FF3529D2A04527D902381C4440EACB
:100468000940A4EB0804A0FB02894C45C6464D464A
:1004780015D312D056B1BAEB0E0364EB050404FA97
:1004880007F7CB401F43CC40376074600021BDE8BC
:10049800F0871846F8E69046E0E6C245EAD2B8EB9F
:1004A800020E69EB03050138E4E72846D7E7404622
:1004B80091E78146BEE7014678E702383C4445E7C4
:1004C800084608E7A8F102083D442BE7704700BF3B
:1004D80038B50E4A0E4B054618784FF47A73B3FBBD
:1004E800F0F31068B0FBF3F000F09CFA044658B93A
:1004F8000F2D09D8024629464FF0FF3000F050FA78
:10050800044B20461D6038BD012038BD080000207E
:10051800000000200400002008B50B4B1A6842F4C4
:1005280000721A601A6842F480621A601A6842F40B
:1005380080721A60032000F021FA0020FFF7C8FF3C
:1005480002F0BEFA002008BD003C0240034A044BFA
:1005580011681B780B441360704700BF50000020DF
:1005680000000020014B1868704700BF50000020B1
:1005780038B50446002800F09B80056C25B902F0C8
:10058800BBFA656484F83C50236CDB0600F18E806E
:10059800236C23F4885323F0020343F002032364FB
:1005A800444B5A6822F440325A605A6861680A43D8
:1005B8005A60236821695A6822F480725A605A681E
:1005C80042EA01225A605A68A16822F040725A60D1
:1005D8005A680A435A609A68E16822F400629A608D
:1005E8009A680A439A603449A26A8A4252D0996842
:1005F80021F07061996099680A439A609A68E16A83
:1006080022F040529A609A680A439A609A68217E5A
:1006180022F002029A609A6842EA41029A6094F8CB
:100628002020002A3ED05A68616A42F400625A606B
:100638005A6822F460425A605A68013942EA4132E3
:100648005A60DA6AE16922F47002DA62DA6A013918
:1006580042EA0152DA629A6894F8301022F4007281
:100668009A609A6842EA41229A609A68616922F41B
:1006780080629A609A68002042EA81229A606064E7
:10068800236C23F0030343F001032364002384F85D
:100698003C3038BD9A6822F070629A609A6822F0FD
:1006A8004052B2E75A6822F40062C9E70120EDE738
:1006B800012038BD002301400100000F82B0002353
:1006C800019390F83C30012B61D0012380F83C3035
:1006D80003689A68D10705D59A68D20714D4002010
:1006E80002B070479A682B4942F001029A602A4A80
:1006F8001268B2FBF1F202EB42020192019A002A5F
:10070800EAD0019A013AF8E7026C22F4E06222F09A
:10071800010242F4807202645A68510541BF026CBA
:1007280022F4405242F480520264026C12F4805265
:100738001CBF426C22F006024264002280F83C2072
:100748006FF022021A60154A516811F01F0F144900
:100758001AD18B4206D001F580718B420BD15268B9
:10076800D206BCD1986810F04050B8D19A6842F0CF
:1007780080429A60B4E70B498B42B0D1526802F0CC
:100788001F020F2AEED9AAE78B42A8D1EAE7022076
:10079800A6E700BF40420F000800002000230140E8
:1007A800002001400022014003689A6870B5560590
:1007B80004460D460BD59B68D80508D5236C43F035
:1007C80020032364002384F83C30012070BDFFF728
:1007D800C9FE064623681A6892070CD56FF0120204
:1007E8001A60226C42F4007222649A6812F0405F28
:1007F80013D0002070BD691CEDD045B9236C43F0BF
:1008080004032364002384F83C30032070BDFFF701
:10081800A9FE801B8542DDD2F0E7227E002AE8D1BE
:10082800DA6A12F4700F02D09B685B05E1D4236C7E
:1008380023F480732364206C10F48050D9D1236C86
:1008480043F00103236470BD0368D86C704700004F
:10085800F7B50023019390F83C30012B00F083801A
:100868000D6804688A680123092D80F83C30AEB20F
:100878002AD906EB4603E7681E3B4FF0070E0EFA2F
:1008880003FE27EA0E07E760E76802FA03F33B4333
:10089800E3604A68062A4FEA820325D81344676B47
:1008A800591F1F238B4027EA03036363626B06FA11
:1008B80001F1114361632D4B9C4234D0002380F831
:1008C8003C30184603B0F0BD276905EB45034FF0EF
:1008D800070E0EFA03FE27EA0E072761276902FAB8
:1008E80003F33B432361D4E70C2A0ED81344216B4E
:1008F800A3F123021F23934021EA03032363236BFD
:1009080006FA02F21A432263D5E71344E16A413B2F
:100918001F229A4021EA0202E262E26A06FA03F121
:100928001143E162C7E7122D04D1114A536843F419
:1009380080035360A5F11003012BBFD80C4A5368FC
:10094800102D43F400035360B8D10A4B0A4A1B68C0
:10095800B3FBF2F20A2353430193019B002BADD062
:10096800019B013BF8E70220ACE700BF00200140F3
:10097800002301400800002040420F00074AD368C6
:1009880023F4E0631B041B0C43F0BF63000243F431
:10099800003300F4E0600343D360704700ED00E0EB
:1009A800174B30B5DC68C4F30224C4F10703251DD6
:1009B800042B28BF0423062D4FF0010505FA03F385
:1009C80003F1FF338CBF033C00241940A14005FA12
:1009D80004F4013C2240002842EA01024FEA0212D4
:1009E800ADBF00F1604000F00F00064B00F561401C
:1009F800B5BFD2B2D2B21A5480F8002330BD00BFBE
:100A080000ED00E014ED00E0002808DB42090123B6
:100A180000F01F0003FA00F0014B43F82200704772
:100A280000E100E00138B0F1807F0AD2064B074AA6
:100A38005860F02182F823100020072298601A607D
:100A480070470120704700BF10E000E000ED00E0B3
:100A580010B5044660B1437903F0FF0213B902717F
:100A680002F09AF80223637101236371002010BD1C
:100A7800012010BD022310B5437103689C6844F03F
:100A880001049C6001EB8202914204D11B6801229F
:100A98004271184610BD51F8044B1C60F4E790F8F9
:100AA8003530022B03D0802343650120704702684C
:100AB800052380F83530136823F001031360002004
:100AC800704700002DE9F04F85B00B68DFF8AC8166
:100AD800684ADFF8AC91019300234FF0010E019CA6
:100AE8000EFA03FE0EEA0406B64540F0AE804C68E6
:100AF80024F01007022F16D14FEAD30A00EB8A0A16
:100B080003F0070BDAF820504FEA8B0B4FF00F0C6D
:100B18000CFA0BFC25EA0C0C0D6905FA0BF545EAF5
:100B28000C05CAF820504FEA430A0325D0F800B054
:100B380005FA0AF5ED4304F0030C0BEA050B0CFA71
:100B48000AFC013F4CEA0B0C012FC0F800C011D879
:100B5800876807EA050BCF6807FA0AFC4CEA0B0717
:100B68008760476827EA0E0EC4F300179F4047EADC
:100B78000E074760C7683D408F6807FA0AF73D438C
:100B8800C560E50061D54FF0000BCDF80CB0D8F882
:100B98004470394D47F48047C8F84470D8F8447019
:100BA80007F480470397039F23F0030707F1804763
:100BB80007F59C3703F0030CD7F808A04FEA8C0C14
:100BC8004FF00F0E0EFA0CFEA8422AEA0E0E43D082
:100BD80005F58065A84241D005F58065A8423FD05B
:100BE80005F58065A8423DD005F58065A8423BD053
:100BF80048453BD005F50065A84239D005F5806524
:100C0800A84214BF0825072505FA0CF545EA0E0584
:100C1800BD601568F74314F4803F0CBF3D40354371
:100C28001560556814F4003F0CBF3D4035435560CE
:100C3800956814F4801F0CBF3D4035439560D56816
:100C4800A40254BF3D403543D5600133102B7FF4D7
:100C580044AF05B0BDE8F08F5D46D5E70125D3E781
:100C68000225D1E70325CFE70425CDE70525CBE706
:100C78000625C9E7003C0140000002400038024058
:100C8800001402400369194214BF01200020704774
:100C98000AB1816170470904FBE7436931EA03033C
:100CA80008BF0904816170472DE9F341044618B96A
:100CB800012002B0BDE8F0810368DD0710D4236885
:100CC800980758D423681A0700F19A8023685B07AD
:100CD80000F1B880A269002A40F019810020E8E7F5
:100CE800A64B9A6802F00C02042A07D09A6802F010
:100CF8000C02082A0AD15B68590207D59F4B1B686A
:100D08009A03DCD56368002BD9D1D1E763689B4D82
:100D1800B3F5803F11D12B6843F480332B60FFF784
:100D280021FC964D06462B689B03C8D4FFF71AFC96
:100D3800801B6428F7D90320BBE7B3F5A02F04D1A3
:100D48002B6843F480232B60E5E72A6822F480327D
:100D58002A602A6822F480222A60002BDFD1FFF75C
:100D680001FC06462B689F03A9D5FFF7FBFB801BF8
:100D78006428F7D9DFE7814B9A6812F00C0F07D087
:100D88009A6802F00C02082A11D15B685E020ED440
:100D98007A4B1A68950702D5E268012A88D11A6841
:100DA800216922F0F80242EAC1021A608AE7E26881
:100DB800734BB2B101221A60FFF7D4FB6F4D0646A0
:100DC8002B68980707D52B68226923F0F80343EAB4
:100DD800C2032B6076E7FFF7C5FB801B0228EFD91B
:100DE800A9E71A60FFF7BEFB644D06462B68990712
:100DF8007FF568AFFFF7B6FB801B0228F6D99AE7A4
:100E08006269604B7AB101221A60FFF7ABFB5B4D58
:100E180006466B6F9F073FF559AFFFF7A3FB801B93
:100E28000228F6D987E71A60FFF79CFB534D064660
:100E38006B6F98077FF54AAFFFF794FB801B02287A
:100E4800F6D978E74D4B1A6C12F0805228D10192EE
:100E58001A6C42F080521A641B6C03F080530193A1
:100E6800019B0126484D2B68D9051BD5A368434D26
:100E7800012B27D12B6F43F001032B67FFF772FB80
:100E88003E4D074641F288382B6F9B0739D5002E17
:100E98003FF420AF394A136C23F08053136419E7E9
:100EA8000026DFE72B6843F480732B60FFF75AFBBB
:100EB80007462B68DA05D9D4FFF754FBC01B022874
:100EC800F7D938E7052B04D12B6F43F004032B67C0
:100ED800D0E72A6F22F001022A672A6F22F0040263
:100EE8002A67002BCAD1FFF73DFB41F28838074635
:100EF8002B6F9807CBD5FFF735FBC01B4045F7D9BB
:100F080019E7FFF72FFBC01B4045BDD913E71B4D61
:100F1800AB6803F00C03082B3FF4CAAE1B4E00234A
:100F2800022A336034D1FFF71DFB07462B6899016D
:100F38001ED4226AE3691343626A43EA8213E26AAF
:100F480043EA0263A26A0D4C5208013A43EA02439B
:100F58006B6001233360FFF705FB054623689A01A0
:100F68003FF5BCAEFFF7FEFA401B0228F6D9E2E6D1
:100F7800FFF7F8FAC01B0228D8D9DCE6003802408F
:100F880000004742800E4742007000406000474220
:100F9800FFF7E8FA04462B689B017FF59FAEFFF741
:100FA800E1FA001B0228F6D9C5E600BF134908B5C7
:100FB8008B6803F00C03042B03D0082B03D01048D4
:100FC80008BD104808BD4A684B68496813F4800397
:100FD80014BF0C480A48C1F3881118BF002302F057
:100FE8003F02A1FB0001FFF7EBF8044B5B68C3F37A
:100FF800014301335B00B0FBF3F008BD0038024049
:101008000024F40040787D012DE9F0410D460446A6
:1010180010B90120BDE8F081444B1A6802F00F02B4
:101028008A4228D321688F072DD4C80740D43F4B64
:101038001A6802F00F02954266D3226851076CD4F1
:10104800130707D53A4A2169936823F4604343EAB2
:10105800C1039360FFF7AAFF354B364A9B68C3F379
:101068000313D35CD840344B18600020FFF730FAE4
:101078000020BDE8F081CAB21A701B6803F00F03A4
:101088009942C6D1CEE72A4B11F0040F1EBF9A68C9
:1010980042F4E0529A600E0742BF9A6842F46042F6
:1010A8009A609A68A06822F0F00202439A60BCE74E
:1010B80062681F4B012A1DD11B6813F4003FA8D09A
:1010C8001B4EB36823F003031343B360FFF74AFAD8
:1010D80041F288380746B368626803F00C03B3EB43
:1010E800820FA4D0FFF73EFAC01B4045F3D9032076
:1010F800BDE8F081911E01291B6802D813F0007F1A
:10110800DDE713F0020FDAE7EAB21A701B6803F0A2
:101118000F039D427FF47DAF8FE70549E0688B6838
:1011280023F4E05303438B608AE700BF003C02408E
:1011380000380240D738000808000020044B054A50
:101148009B68C3F38223D35C034A1068D840704776
:1011580000380240E738000808000020044B054A20
:101168009B68C3F34233D35C034A1068D840704786
:1011780000380240E738000808000020036A23F01E
:1011880001030362036A70B5446882690D6822F03E
:1011980073022A438D6823F002032B430E4DA842A5
:1011A80002D00E4EB04210D1CE6823F0080333436C
:1011B800A84223F0040302D0084DA84205D14D6986
:1011C8008E6924F4407435432C43446082614A6834
:1011D8004263036270BD00BF00000140000401408B
:1011E800036A23F480730362036A70B54468C269B2
:1011F8000D6822F073022A438D6823F4007343EAD2
:101208000523114DA84203D005F58065A84214D1E5
:10121800CD6823F4006343EA05230B4DA84223F469
:10122800806303D005F58065A84206D14D698E69B3
:1012380024F44054354344EA05144460C2614A68C2
:10124800C263036270BD00BF00000140036A23F45B
:1012580080530362036A30B54468C2690D6822F49A
:10126800E64242EA05228D6823F4005343EA053337
:10127800084DA84203D005F58065A84204D14D6900
:1012880024F4804444EA85144460C2614A680264D4
:10129800036230BD0000014070470000304A036817
:1012A800904212D0B0F1804F0FD0A2F57C4290420C
:1012B8000BD002F58062904207D002F5806290421E
:1012C80003D002F57842904219D14A6823F070039E
:1012D8001343234A904229D0B0F1804F26D0A2F57B
:1012E8007C42904222D002F5806290421ED002F5E4
:1012F800806290421AD002F57842904216D0194A7C
:10130800904213D002F5806290420FD002F58062BD
:1013180090420BD0A2F59832904207D002F5806235
:10132800904203D002F58062904203D1CA6823F448
:10133800407313434A6923F08003134303608B68A7
:10134800C3620B688362064B984203D003F580633F
:10135800984201D10B69036301234361704700BFC1
:10136800000001400040014010B50446A0B190F8CB
:101378003D3003F0FF021BB980F83C2001F070FCFF
:10138800022384F83D302068211DFFF787FF0123E1
:1013980084F83D30002010BD012010BD10B5044672
:1013A800A0B190F83D3003F0FF021BB980F83C2053
:1013B80001F00AFC022384F83D302068211DFFF764
:1013C8006DFF012384F83D30002010BD012010BDC1
:1013D80038B50D460446E0B190F83D3003F0FF0201
:1013E8001BB980F83C20FFF757FF022384F83D30F3
:1013F800211D2068FFF752FF23681A6822F00802AF
:101408001A60196829431960012384F83D300020C7
:1014180038BD012038BD0000036A23F010030362C1
:10142800036A70B5446882690D6822F4E64242EAAC
:1014380005228D6823F0200343EA0513104DA842C6
:1014480003D005F58065A84214D1CD6823F0800348
:1014580043EA05130A4DA84223F0400303D005F5DB
:101468008065A84206D14D698E6924F440643543ED
:1014780044EA8504446082614A688263036270BDFD
:101488000000014038B590F83C30012B04464FF07D
:10149800020025D0012384F83C3084F83D000C2A52
:1014A80018D8DFE802F0071717171E1717172F1796
:1014B800171740002068FFF761FE236809699A69D9
:1014C80042F008029A619A6922F004029A619A69C4
:1014D8000A439A610123002084F83D3084F83C00D7
:1014E80038BD2068FFF798FF236809699A6942F4B4
:1014F80000629A619A6922F480629A619A6942EA62
:101508000122E6E72068FFF76BFE23680969DA69BC
:1015180042F00802DA61DA6922F00402DA61DA6973
:101528000A43DA61D6E72068FFF790FE2368096965
:10153800DA6942F40062DA61DA6922F48062DA6117
:10154800DA6942EA0122ECE7036A01F01F0110B5EB
:1015580001248C4023EA04030362036A8A401A4385
:10156800026210BD10B5044601220068FFF7ECFFC7
:1015780023680B4A93420ED002F5806293420AD048
:101588009A6802F00702062A03D01A6842F001029C
:101598001A60002010BD5A6C42F400425A64EFE70A
:1015A8000000014010B5044600220068FFF7CCFF98
:1015B8002368144A934203D002F5806293420DD106
:1015C800196A41F21112114208D1196A40F24442D3
:1015D800114202BF5A6C22F400425A64196A41F25D
:1015E8001112114208D1196A40F24442114203D142
:1015F8001A6822F001021A60012384F83D300020A5
:1016080010BD00BF0000014090F83C30012B30B500
:101618004FF0020314D0046880F83D306268A36874
:101628000D68496822F0700223F080030B432A43B7
:101638006260A360012380F83D30002380F83C30CD
:10164800184630BD0368DA6822F49072DA605A6985
:1016580022F001025A61202380F83A3070470000D6
:101668002DE9F0470668C2683369C16923F440531D
:1016780013433361044683680069F2680343606971
:1016880022F41642034322F00C020B431343F36087
:101698007369A26923F440731343B1F5004F736172
:1016A8007A4B7CD19E4203D003F580639E4244D19D
:1016B800FFF754FD192505FB00F360684FF0640936
:1016C8004000B3FBF0F3B3FBF9F34FEA0318FFF75D
:1016D80045FD636868435B00B0FBF3F7FFF73EFD29
:1016E800636868435B00B0FBF3F3B3FBF9F309FBF2
:1016F8001373DB003233B3FBF9F35B0003F4F877C1
:10170800FFF72CFD626868435200B0FBF2FAFFF75E
:1017180025FD636868435B00B0FBF3F3B3FBF9F3A3
:1017280009FB13A3DB003233B3FBF9F303F0070320
:1017380043443B44B360BDE8F087FFF7FFFC19253D
:1017480005FB00F360684FF064094000B3FBF0F359
:10175800B3FBF9F34FEA0318FFF7F0FC636868433B
:101768005B00B0FBF3F7FFF7E9FC636868435B00D5
:10177800B0FBF3F3B3FBF9F309FB1373DB0032336C
:10178800B3FBF9F35B0003F4F877FFF7D7FC626863
:1017980068435200B0FBF2FAFFF7D0FCB9E79E426B
:1017A80002D03B4B9E4240D1FFF7D8FC6768192511
:1017B8004FF0640905FB00F3BF00B3FBF7F3B3FB7D
:1017C800F9F31F01FFF7CAFC636868439B00B0FB8D
:1017D800F3F8FFF7C3FC636868439B00B0FBF3F3BF
:1017E800B3FBF9F309FB13831B013233B3FBF9F3A2
:1017F80003F0F008FFF7B2FC626868439200B0FBA0
:10180800F2FAFFF7ABFC636868439B00B0FBF3F3A5
:10181800B3FBF9F309FB13A31B013233B3FBF9F351
:1018280003F00F0343EA080383E7FFF787FC6768C1
:1018380019254FF0640905FB00F3BF00B3FBF7F36C
:10184800B3FBF9F31F01FFF779FC636868439B005A
:10185800B0FBF3F8FFF772FC636868439B00B0FBCA
:10186800F3F3B3FBF9F309FB13831B013233B3FB27
:10187800F9F303F0F008FFF761FC6268684392002F
:10188800B0FBF2FAFFF75AFCBDE700BF00100140B9
:1018980000140140F8B504460E4617461D46216857
:1018A8000B6836EA030301D10020F8BD6B1CF7D0A2
:1018B80095B92368DA6822F4D072DA605A6922F09E
:1018C80001025A61202384F8393084F83A30002321
:1018D80084F838300320F8BDFEF744FEC01B85426B
:1018E800DDD2E6E710B5044640B390F8393003F08E
:1018F800FF021BB980F8382001F0AEFA22682423D1
:1019080084F83930D36823F40053D3602046FFF7B6
:10191800A7FE23681A6922F490421A615A6922F0D4
:101928002A025A61DA6842F40052DA600020202361
:10193800E06384F8393084F83A3010BD012010BDD6
:101948002DE9F0411F4690F83930202B04460D460A
:1019580090464FD100294AD0002A48D090F8383014
:10196800012B47D0012380F838300023C36321239B
:1019780080F83930FEF7F6FDA4F824800646A4F86E
:101988002680E38C9BB26BB93B4632464021204609
:10199800FFF780FFB0B9202384F8393084F8380085
:1019A800BDE8F081E38C013B9BB2E384A368B3F507
:1019B800805F32463B464FF0800120460ED1FFF74C
:1019C80069FF10B10320BDE8F0812B882268C3F3BA
:1019D80008035360236943B90235D2E7FFF75AFF7A
:1019E8000028EFD123682A785A600135C9E7012019
:1019F800BDE8F0810220BDE8F08190F83A30202B54
:101A080020D1E9B1E2B190F83830012B1AD0C28563
:101A1800828500232222C36380F83A20026881620B
:101A2800D16880F8383041F48071D160516941F053
:101A380001015161D16841F02001D1601846704719
:101A480001207047022070477047704790F83A307D
:101A5800222B10B536D1836801690268B3F5805F1F
:101A6800836A23D15268E9B9C2F3080223F8022B2A
:101A78008362C48D013CA4B2C4858CB90368DA685A
:101A880022F02002DA60DA6822F48072DA605A6999
:101A980022F001025A61202380F83A30FFF7D5FF7F
:101AA800002010BDD2B223F8012BE1E721B9591C5F
:101AB800526881621A70DCE75268591C816202F030
:101AC8007F02F7E7022010BD7047000003681A681C
:101AD800D96870B5160704465D6907D196065AD5C8
:101AE8008D0658D5BDE87040FFF7B0BF15F0010569
:101AF80002D111F4907F4ED0D30705D5CE0542BF51
:101B0800E36B43F00103E363500704D51DB1E36BB6
:101B180043F00203E363930704D51DB1E36B43F07D
:101B28000403E363160704D51DB1E36B43F0080310
:101B3800E363E36B002B66D0950604D5880602D5CF
:101B48002046FFF783FF23685D69E26B1107204693
:101B580002D415F040051AD0FFF774FD23685A69BE
:101B6800520610D55A69606B22F040025A6150B192
:101B7800254B0365FEF793FF002844D0606BBDE852
:101B88007040036D18472046FFF79EFF70BDFFF7B2
:101B98009BFFE56370BD160627D50D0625D594F87D
:101BA8003920212A2FD1A268B2F5805F226A17D185
:101BB8001188C1F308015960216979B9023222629A
:101BC800E28C013A92B2E284EAB9DA6822F0800241
:101BD800DA60DA6842F04002DA6070BD0132EEE79E
:101BE800511C216212785A60EAE750060BD54A0662
:101BF80009D5DA6822F04002DA60202384F8393007
:101C08002046FFF721FF70BD151C000808B5806B42
:101C18000023C385C384FFF757FF08BD10B5054AE5
:101C280005490023834200DD10BD5C5C9C540133F0
:101C3800F8E700BFE00500205400002010B5054A71
:101C480005490023834200DD10BD5C5C9C540133D0
:101C5800F8E700BFE0050020CA0C00200023034A73
:101C6800194699540133642BFBD170477D0A002033
:101C78002DE9F041394C0623236000F04FF9226822
:101C8800012AFCD14FF400513548FFF701F80C2325
:101C9800236000F043F92568012DFCD1FFF7DEFF32
:101CA800304A314C31486572FF2313705370304A03
:101CB800E37115702F4A237292F800802E4AC3717F
:101CC80092F800C02D4A84F801C0117861714FF074
:101CD800020E0622032705264171002184F802E03E
:101CE80080F802E080F801C0A271037284F80080D5
:101CF800E770267180F80080C7700671827145729E
:101D080000F042FE08221E491E48FEF7B3FE1E4B95
:101D18001860186800F048FE1C4B1D48DA78A2725B
:101D28009A78E2725A781B7863737D232273A373BF
:101D3800E373214641F288331022FFF701FE214662
:101D4800102241F288331348FFF7FAFD00224FF4BE
:101D580000510348BDE8F041FEF79ABFCC090020C6
:101D6800000802405C0100207D0A00206801002074
:101D780050020020BF0F0020B80F0020540200209E
:101D8800E40A002050010020940600205D0B00208A
:101D980080070020D009002008B54FF48041204872
:101DA800FEF770FF40B14FF400511D48FEF76AFF7F
:101DB80010B11C4B01221A604FF480411848FEF7FD
:101DC80061FF58B900F180404FF4005100F504302C
:101DD800FEF758FF10B9134B02221A604FF48041E6
:101DE8000F48FEF74FFF40B14FF400510C48FEF783
:101DF80049FF10B90B4B04221A604FF48041084880
:101E0800FEF740FF58B900F180404FF4005100F54B
:101E18000430FEF737FF10B1024B03221A6008BDE9
:101E2800001002405402002084B010B588B00AACFB
:101E380084E80F0000212046FFF7B4FB002460234C
:101E480001932246BDF86830029301A90AA80394B9
:101E58000594FFF717FB21460AA8FFF783FB08B094
:101E6800BDE8104004B0704700B595B0302200219D
:101E780008A801F017FD1422002103A801F012FDA3
:101E88000023184A0193116C41F080511164126CBF
:101E980002F080520192019A134A0293116841F4A8
:101EA8008041116012680E9302F480420292029AF5
:101EB8000222089201220B9208A810220C92FEF727
:101EC800F3FE014600B1FEE70F230490059006904B
:101ED800079003A80393FFF797F800B1FEE715B042
:101EE8005DF804FB0038024000700040024A1368A5
:101EF8000BB1013B13607047E8030020024A1368E6
:101F08000BB1013B13607047540A0020024A136862
:101F18000BB1013B1360704798020020024A136816
:101F28000BB1013B13607047CC090020024A1368CB
:101F38000BB1013B1360704790060020F0B55E4B73
:101F48005E4F1B7A3A6893428FB0064643D0012B06
:101F58003B6013D1DFF868E14FF4C8730C930EF1BE
:101F680010050FCD6C460FC40FCD0FC495E80F00B8
:101F780084E80F009EE80F00FFF756FF3B68022B2E
:101F880013D1DFF83CE14FF416730C930EF11005F2
:101F98000FCD6C460FC40FCD0FC495E80F0084E831
:101FA8000F009EE80F00FFF73FFF3B68032B12D19D
:101FB800434F4FF47A730C9307F110050FCD6C461D
:101FC8000FC40FCD0FC495E80F0084E80F0097E801
:101FD8000F00FFF729FF06F0330501F0AFFB332DA3
:101FE80013D1012211463748FEF752FE0122102173
:101FF8003448FEF74DFE012202213248FEF748FE22
:10200800012280212F48FEF743FE06F04404442CA9
:102018000AD1012211462C48FEF73AFE01224FF45C
:1020280080712848FEF734FE06F08806882E0AD10B
:10203800012208212348FEF72BFE01224FF480617C
:102048002048FEF725FE332D17D101224FF40061F9
:102058001C48FEF71DFE01224FF400411948FEF707
:1020680017FE01224FF480511648FEF711FE012297
:102078004FF400411548FEF70BFE442C0AD101220B
:102088004FF400510F48FEF703FE012208210E48C5
:10209800FEF7FEFD882E0DD101224FF4804109483C
:1020A800FEF7F6FD0A48012208210FB0BDE8F0400E
:1020B800FEF7EEBD0FB0F0BD540000202C0000204C
:1020C800A8030020000C024000000240001002405B
:1020D8000008024080B58EB0FEF71EFAFFF7C4FE76
:1020E8001422002107A801F0DDFB0024A04B009476
:1020F8001A6BA04842F004021A631A6B02F0040239
:102108000092009A01941A6B42F001021A631A6B4A
:1021180002F001020192019A02941A6B42F0020243
:102128001A631A6B02F002020292029A03941A6B63
:1021380042F010021A631A6B02F010020392039A1B
:1021480004941A6B42F008021A631B6B03F008032D
:102158000493224642F20C01049BFEF799FD2246A5
:1021680048F209018448FEF793FD224649F6887132
:102178008248FEF78DFD22464FF69F518048FEF7B4
:1021880087FD012542F20C0307A97A4807930895B1
:1021980009940A94FEF796FC48F2090307A97648C1
:1021A8000793089509940A94FEF78CFC49F68873FE
:1021B80007A972480793089509940A94FEF782FCC8
:1021C8004FF4C04307A96D48079308940994FEF794
:1021D80079FC4FF69F536A48079307A90895099415
:1021E8000A94FEF76FFC6748674B84604FF4E1364A
:1021F8000C2580E84800C460046145618461C461BD
:10220800FFF770FB00B1FEE7604B614A9860D86049
:1022180018619861D861184683E844005D61FFF74A
:1022280061FB00B1FEE75B4B5B4A9860D8601861C0
:102238009861D8614FF4964418465D6183E81400AC
:10224800FFF750FB054600B1FEE71C22534C014640
:102258000DEB020001F026FB514BA5604FF00F0873
:102268004FF47A77204684E80801E7602561A56184
:10227800FFF77AF800B1FEE72046FFF78FF802462D
:1022880000B1FEE7089009900B90602607A9204648
:102298000796FFF7F7F8054600B1FEE7204600F07D
:1022A8002DFD1C223F4C29460DEB020001F0FAFAE5
:1022B8003D4BA560204684E80801E7602561A561DB
:1022C800FFF752F800B1FEE72046FFF767F802462D
:1022D80000B1FEE7089009900B9007A920460796E1
:1022E800FFF7D0F8054600B1FEE7204600F006FDEE
:1022F8002E482F4B856080E82800C5600561856100
:10230800FFF732F800B1FEE71C2200210DEB0200B6
:1023180001F0C8FA274C284B4FF00F0884E8080151
:102328004FF47A7700232046A360E7602361A36116
:10233800FFF71AF800B1FEE72046FFF72FF802462C
:1023480000B1FEE76026089009900B9007A9204687
:102358000796FFF797F800B1FEE7204600F0CEFC9D
:102368001648174B0360FEF773FB054650B3FEE7AC
:1023780000380240000802400000024000100240FD
:10238800000C024060050020001001409C02002063
:10239800004800408007002000140140100A002077
:1023A8000020004020050020001C0040A00500205F
:1023B800004801402403002000440140500100204F
:1023C800003002401C228E4C0590069001460DEB11
:1023D800020001F067FA8B4BA560204684E80801EB
:1023E800E7602561A561FEF7D9FF00B1FEE7082186
:1023F8002046FEF7EDFF00B1FEE70590069005A91F
:102408002046FFF701F900B1FEE7089009900B900C
:10241800042207A920460796FFF734F8054600B1BD
:10242800FEE7204600F06AFC774C05951C222946F9
:102438000DEB0200069501F035FA4FF08043204677
:1024480084E82800A560E5602561A561FEF7A6FF80
:1024580000B1FEE70590069005A92046FFF7D4F8DD
:1024680000B1FEE700234FF0600A042207A966487E
:10247800CDF81CA0089309930B93FFF703F80546C2
:1024880000B1FEE76048614C614F00F037FC102254
:10249800294607A801F006FA5E4BA56001262046EA
:1024A80084E828002561257684F82050E562A76233
:1024B800E560E66184F830506661FEF759F800B1CE
:1024C800FEE70923099007A9204607930896FEF717
:1024D800BFF9054600B1FEE71C224F4C0590069057
:1024E80001460DEB020001F0DDF94C4BA5604FF001
:1024F8000F094FF47A78204684E80802C4F80C8063
:102508002561A561FEF74AFF00B1FEE70590069038
:1025180005A92046FFF778F8024600B1FEE70890C3
:1025280009900B9007A92046CDF81CA0FEF7AAFF3A
:10253800054600B1FEE7204600F0E0FB3848394A7E
:1025480085604FF4964380E80C000C23C560056154
:102558008561C5614361FFF7C5F9054600B1FEE72E
:10256800314C0146102207A801F09CF92F4BA560B9
:10257800204684E828002561257684F82050E56205
:10258800A762E560E66184F830506661FDF7F0FF08
:1025980000B1FEE70823099007A92046079308968B
:1025A800FEF756F9044600B1FEE71C220590069096
:1025B80001460DEB020001F075F91D481D4B8460C2
:1025C80080E80802C0F80C8004618461FEF7E6FE2A
:1025D80000B1FEE7002305A9154805930693FFF708
:1025E80013F800B1FEE76023089009900B900C22C5
:1025F80007A90F480793FEF745FF0446E0B1FEE739
:1026080068030020000C00408C090020DC02002038
:102618000100000F00210140A80300200004004031
:10262800D009002000440040EC03002000200140B5
:1026380058020020000800409848994EDFF8C882E8
:1026480000F05CFB012297499748FFF7D6F9012271
:1026580096499748FFF7D1F922464FF4005195481B
:10266800FEF716FB012204219248FEF711FB012216
:102678004FF400419048FEF70BFBFFF78DFB374600
:1026880001228E498E488F4DFFF7B7F901228E49F6
:102698008E48FFF7B2F93368012B75D18C4C8D4900
:1026A8000022204600F0ACF98B4B1860002865D05A
:1026B8001320FFF7B3FA0021884800F065F90822D3
:1026C80087498848FEF7D6F9874B1860874B18600A
:1026D800874BC2B2C0F30721C0F3074E000E1A7031
:1026E800597083F802E0D870237D834244D1637D1A
:1026F800734541D1A37D8B423ED1E37D93423BD1CB
:10270800DFF80892A27AD9F800309A4232D108212B
:102718004046FEF7C2FA00F0CFFDD9F80030012B91
:1027280005D1744B227A19780846FFF707FCD9F8C7
:102738000030022B06D1704B227A19786D4B18782D
:10274800FFF7FCFBD9F80030032B05D16B4B227A3D
:1027580019780846FFF7F2FBD9F80030042B05D1A9
:10276800674B227A19780846FFF7E8FB00F0DAFD94
:10277800FFF77EFA01232B6000233B6000F0F0F89E
:1027880000F0F8F800233B60DFF88491D9F80030B6
:10279800012B76D15B4C4F490022204600F030F9DE
:1027A8004D4B1860002865D01320FFF747FA002129
:1027B8004A4800F0E9F8082249494A48FEF75AF918
:1027C800494B1860494B1860494BC2B2C0F3072106
:1027D800C0F3074E000E1A70597083F802E0D870E3
:1027E800237D834243D1637D734540D1A37D8B42D2
:1027F8003DD1E37D93423AD1DFF810A1A27ADAF80D
:1028080000309A4231D108214046FEF746FA00F0DE
:1028180053FDDAF80030012B05D1364B227A1978AE
:102828000846FFF78BFBDAF80030022B06D1324B53
:10283800227A19782F4B1878FFF780FBDAF80030E6
:10284800032B04D1FF21227A0846FFF777FBDAF839
:102858000030042B05D12A4B227A19780846FFF755
:102868006DFB00F05FFDFFF703FA01232B600023E7
:10287800C9F8003000F060F800F068F80023C9F8E3
:1028880000302B68012B04BF02232B602B68032B1D
:102898007FF4F6AE00232B60F2E600BF580200205A
:1028A800640300209C060020600500203C040020F2
:1028B8009C0200200008024000000240A8080020F6
:1028C800D009002028000020C00700208007002031
:1028D80054000020D4380008500A0020E0050020E9
:1028E800E40A00205001002094060020440600203D
:1028F80038040020B90F0020BC0F0020C10F0020B1
:10290800BB0F0020CA0C0020001002405402002017
:10291800340400201FB5044610220021684600F048
:10292800C1FF01236946034800940193FDF790FF16
:1029380004B010BDDC0200200023034A1946995454
:102948000133A02BFBD17047CA0C00200023034A97
:10295800194699540133A02BFBD17047C0070020BA
:102968000023034A194699540133A02BFBD1704721
:10297800540000200023034A194699540133A02B20
:10298800FBD17047A808002030B5064A00F11803AB
:10299800091A441810F8015B42F824509842F8D1FB
:1029A80030BD00BFE40A00200C4B18601A68D2B290
:1029B8001A600B4A19681170C0F307211960196869
:1029C8005170C0F307411960000E196818601B6840
:1029D800D370002391701371704700BF300000203E
:1029E8005D0B00200023044804491A461A545A541F
:1029F8000133642BFAD17047E90B0020760B0020D5
:102A0800F8B5064615460F46294CFFF7EBFF294B4C
:102A1800002222801A80304602460130117829B3FC
:102A2800254E013A12F8011F21BBB3F90020B15419
:102A3800791E224F11F8010FB4F90020B854F8B9E3
:102A48006A1C208092B20146551E2DB216F805E088
:102A58007D5CAE4515B21BD016F805E0BEF1000F3F
:102A680011D11D8000B121800020F8BD1A880132E3
:102A78001A80D1E7B3F90000315401301880D1E74A
:102A880001322280D6E70021013292B20120DBE731
:102A9800013109B2284617F801E0BEF1000F02D152
:102AA8001D802180F8BD705D0028EDD11D80DAE71A
:102AB8003600002034000020E90B0020760B0020AF
:102AC80082B00C4B002100915A6C42F480425A6447
:102AD8005A6C02F480420092009A01911A6C42F0FA
:102AE80080521A641B6C03F080530193019B02B05F
:102AF800704700BF0038024010B514228AB004465F
:102B080000210DEB020000F0CDFE23681E4A93421F
:102B18001FD11E4B002101915A6C42F480725A64F5
:102B28005A6C02F480720192019A02911A6B42F077
:102B380002021A631B6B03F002030293029B012338
:102B4800059305A9032312480693FDF7BBFF0AB0B6
:102B580010BD104A9342FAD10C4B002103915A6CD4
:102B680042F400725A645A6C02F400720392039A97
:102B780004911A6B42F002021A631B6B03F0020302
:102B88000493049B0223DBE7002001400038024045
:102B980000040240002101400268094B9A4282B0B9
:102BA8000BD100230193074B1A6B42F480521A632E
:102BB8001B6B03F480530193019B02B0704700BF65
:102BC80000300240003802400368B3F1804F84B0FF
:102BD8000DD1002300931E4B1A6C42F001021A64B7
:102BE8001B6C03F001030093009B04B07047194A63
:102BF80093420CD100230193154B1A6C42F0020248
:102C08001A641B6C03F002030193019BEDE7124A5F
:102C180093420CD1002302930D4B1A6C42F004022C
:102C28001A641B6C03F004030293029BDDE70B4A52
:102C38009342DAD100230393054B1A6C42F0080241
:102C48001A641B6C03F008030393039BCDE700BFD2
:102C5800003802400004004000080040000C00401A
:102C68000368214A934284B00DD1002300931F4B7F
:102C78005A6C42F400325A645B6C03F400330093DC
:102C8800009B04B070471A4A93420CD10023019369
:102C9800164B5A6C42F480225A645B6C03F480230E
:102CA8000193019BEDE7134A93420CD10023029351
:102CB8000E4B1A6C42F080021A641B6C03F08003FE
:102CC8000293029BDDE70C4A9342DAD10023039377
:102CD800064B1A6C42F480721A641B6C03F48073FE
:102CE8000393039BCDE700BF004401400038024036
:102CF80000480140001C00400020004010B5044678
:102D08008CB01422002107A800F0CCFD2368B3F191
:102D1800804F17D100230093464B1A6B42F00202F2
:102D28001A631B6B03F002030093009B08230793AD
:102D380002230893012340480B9307A9FDF7C2FE1D
:102D48000CB010BD3D4A934210D100230193394B7A
:102D58001A6B42F002021A631B6B03F00203019321
:102D6800019B1023079302230893E4E7344A934214
:102D78000ED1002302932F4B1A6B42F002021A6302
:102D88001B6B03F002030293029B4FF40073E9E705
:102D98002C4A934212D100230393264B1A6B42F01C
:102DA80001021A631B6B03F001030393039B0223C5
:102DB800079308930B9307A92348BFE7234A934235
:102DC80012D1002304931B4B1A6B42F002021A63C0
:102DD8001B6B03F002030493049B4FF48073079367
:102DE800022308930323A6E7194A934211D100232B
:102DF8000593104B1A6B42F001021A631B6B03F028
:102E080001030593059B4023079302230893092395
:102E1800D0E7104A934293D100230693054B1A6BCF
:102E280042F001021A631B6B03F001030693069B31
:102E38008023E9E700380240000402400004004013
:102E480000080040000C004000000240004401401F
:102E5800001C0040002000402DE9F04104468EB0DF
:102E68001422002109A800F01DFD23686A4A934234
:102E78002ED16A4B6A48002400945A6C42F0100222
:102E88005A645A6C02F010020092009A01941A6B6C
:102E980042F002021A631B6B03F002030193019BC9
:102EA800C023099302230A9301230B9303230C9352
:102EB80009A907230D93FDF705FE25202246214683
:102EC800FDF76EFD2520FDF79FFD0EB0BDE8F081F2
:102ED800544A93422AD1514B5348002402941A6C05
:102EE80042F400321A641A6C02F400320292029A16
:102EF80003941A6B42F008021A631B6B03F0080371
:102F08000393039B6023099302230A9301230B93E2
:102F180003230C9309A907230D93FDF7D3FD26205E
:102F280022462146FDF73CFD2620CCE73F4A934246
:102F380043D13A4B3A48002404941A6C42F4802254
:102F48001A641A6C02F480220492049A05941A6B8B
:102F580042F002021A631A6B02F002020592059A05
:102F680006941A6B42F008021A631B6B03F00803FD
:102F78000693069B4FF002084FF48063012703264F
:102F8800072509A90993CDF828800B970C960D956C
:102F9800FDF798FD4FF4007309A923480993CDF86C
:102FA80028800B970C960D95FDF78CFD272022465F
:102FB8002146FDF7F5FC272085E71D4A934284D179
:102FC800164B1C48002407945A6C42F020025A649D
:102FD8005A6C02F020020792079A08941A6B42F082
:102FE80004021A631B6B03F004030893089BC023B5
:102FF800099302230A9301230B9303230C9309A932
:1030080008230D93FDF75EFD472022462146FDF774
:10301800C7FC472057E700BF0010014000380240B6
:103028000004024000440040000C024000480040F8
:1030380000140140000802407047FEE7FEE7FEE783
:10304800FEE770477047704708B5FEF74FFFFEF779
:1030580055FFFEF75BFFFEF761FFFEF767FFFDF721
:1030680075FA1C4B1B68012B09D81B490A68012AF1
:1030780005D100230B6019490A60194A1380194BBE
:103088001B68012B09D818490A68012A05D10023B1
:103098000B6016490A60164A1380164B1B68012BF1
:1030A80009D815490A68012A05D100230B6013497C
:1030B8000A60134A1380134B1B68012B09D8124965
:1030C8000A68012A05D100230B6010490A60104ADA
:1030D800138008BDE80300204400002034040020C9
:1030E8003A000020540A002040000020A4080020D4
:1030F8003800002098020020480000209806002090
:103108003C000020CC0900204C0000206403002073
:103118003E0000200E4B0A2210B51A600D4B0E4CD3
:103128001A688AB9228001221A6022880B48322A3A
:1031380082BF00221A602280FEF7C8FC084A238852
:103148001178084AD15410BD228801322280ECE758
:10315800540A0020400000203800002060050020AC
:103168009C060020BE0E0020104B0A2210B51A60E3
:103178000F4B104C1A689AB9228001221A602288D3
:103188000D4892B2962A82BF00221A602280FEF76A
:103198009DFC0A4A23881178094A9BB2D15410BD74
:1031A8002288013292B22280E9E700BFCC090020D0
:1031B8004C0000203E000020D0090020A808002074
:1031C800540000200E4B0A2210B51A600D4B0E4C0D
:1031D8001A688AB9228001221A6022880B48322A8A
:1031E80082BF00221A602280FEF770FC084A2388FA
:1031F8001178084AD15410BD228801322280ECE7A8
:1032080098020020480000203C0000209C0200207A
:103218003C040020C40D00200E4B0A2210B51A6091
:103228000D4B0E4C1A688AB9228001221A60228836
:103238000B48322A82BF00221A602280FEF746FC21
:10324800084A23881178084AD15410BD22880132CF
:103258002280ECE7E8030020440000203A00002028
:1032680080070020C0070020CA0C00200F49D1F8B1
:10327800883043F47003C1F888300D4B1A68002079
:1032880042F001021A6098601A6822F0847222F4EF
:1032980080321A60074A5A601A6822F480221A603B
:1032A800D8604FF000638B60704700BF00ED00E00E
:1032B8000038024010300024114912484B7903F0BD
:1032C800F0020270104842EA131202700F4A03F02B
:1032D8000F0313700E4A43EA031313708B790D49D9
:1032E80003F0F0020A700C4942EA13120A700B4A02
:1032F80003F00F0313700A4A43EA0313137070476D
:1033080054000020B90F0020BA0F0020BE0F002083
:10331800C10F0020BC0F0020C00F0020BB0F0020F1
:10332800C20F002070B5CB4DCB4CCC48002632469E
:1033380080212E702670FDF7ABFC32464FF4807169
:10334800C648FDF7A5FC32464FF40071C348C44E89
:10335800FDF79EFC0920FFF7DDFAC248FDF7AEF93C
:103368006421C048FDF720FABE48FDF76DFA2B78B6
:10337800706064288CBF83F0010323F001030820E8
:103388002B70FFF7C7FAB848FDF798F96421B648DB
:10339800FDF70AFAB448FDF757FA237870626428F3
:1033A8008CBF83F0010323F0010301228021AB4885
:1033B8002370FDF76DFC00224FF48071A748FDF7DC
:1033C80067FC00224FF40071A448FDF761FC092056
:1033D800FFF7A0FAA348FDF771F96421A148FDF7AA
:1033E800E3F9A048FDF730FA2B78B06064288CBF69
:1033F80083F0020323F0020308202B70FFF78AFAF8
:103408009948FDF75BF964219748FDF7CDF996488F
:10341800FDF71AFA2378B06264288CBF83F00203A0
:1034280023F00203002280218C482370FDF730FC32
:1034380001224FF480718948FDF72AFC00224FF4DD
:1034480000718648FDF724FC0920FFF763FA8548D8
:10345800FDF734F964218348FDF7A6F98148FDF7A3
:10346800F3F92B78F06064288CBF83F0040323F011
:10347800040308202B70FFF74DFA7B48FDF71EF96F
:1034880064217948FDF790F97748FDF7DDF923784D
:10349800F06264288CBF83F0040323F00403012244
:1034A80080216E482370FDF7F3FB01224FF48071F1
:1034B8006A48FDF7EDFB00224FF400716748FDF7FD
:1034C800E7FB0920FFF726FA6648FDF7F7F86421BD
:1034D8006448FDF769F96348FDF7B6F92B78306160
:1034E80064288CBF83F0080323F0080308202B709E
:1034F800FFF710FA5C48FDF7E1F864215A48FDF738
:1035080053F95948FDF7A0F92378306364288CBF34
:1035180083F0080323F00803002280214F4823701A
:10352800FDF7B6FB00224FF480714C48FDF7B0FB65
:1035380001224FF400714948FDF7AAFB0920FFF763
:10354800E9F94848FDF7BAF864214648FDF72CF92F
:103558004448FDF779F92B78706164288CBF83F0B3
:10356800100323F0100308202B70FFF7D3F93E480F
:10357800FDF7A4F864213C48FDF716F93A48FDF731
:1035880063F92378706364288CBF83F0100323F0F9
:1035980010030122802131482370FDF779FB0022B6
:1035A8004FF480712D48FDF773FB01224FF4007131
:1035B8002A48FDF76DFB0920FFF7ACF92948FDF70C
:1035C8007DF864212748FDF7EFF82648FDF73CF918
:1035D8002B78B06164288CBF83F0200323F020038C
:1035E80008202B70FFF796F91F48FDF767F864214C
:1035F8001D48FDF7D9F81C48FDF726F92378B06374
:1036080064288CBF83F0200323F02003002280214C
:1036180012482370FDF73CFB01224FF480710F48DC
:10362800FDF736FB01224FF400710C48FDF730FB23
:103638000920FFF76FF90B48FDF740F864210948A6
:10364800FDF7B2F80748FDF7FFF82B78F06164281A
:103658000CE000BFBF0F0020B80F00200010024090
:1036680048060020DC020020EC0300208CBF83F019
:10367800400323F0400308202B70FFF74BF92C4838
:10368800FDF71CF864212A48FDF78EF82848FDF755
:10369800DBF82378F06364288CBF83F0400323F0C1
:1036A80040030122802123482370FDF7F1FA01220B
:1036B8004FF480711F48FDF7EBFA01224FF40071B7
:1036C8001C48FDF7E5FA0920FFF724F91A48FCF72A
:1036D800F5FF64211848FDF767F81748FDF7B4F8B7
:1036E8002B78306264288CBF83F0800303F07F035B
:1036F80008202B70FFF70EF90D48FCF7DFFF642157
:103708000B48FDF751F80A48FDF79EF82378306416
:1037180064288CBF83F0800303F07F0323702B7829
:103728000BB9FF232B7023780BB9FF23237070BDCF
:10373800EC03002000100240DC02002038B52E4CBB
:103748002E4D204600220121FDF7A2FA2046002234
:103758000221FDF79DFA284600220121FDF798FA7B
:10376800204600220821FDF793FA20460022102166
:10377800FDF78EFA204600228021FDF789FA2046BF
:1037880000224FF48071FDF783FA204600224FF49F
:103798008061FDF77DFA204600224FF40061FDF7B5
:1037A80077FA204600224FF48051FDF771FA20463F
:1037B80000224FF40051FDF76BFA204600224FF427
:1037C8008041FDF765FA204600224FF40041FDF7DD
:1037D8005FFA00224FF400410948FDF759FA2846DC
:1037E80000220821FDF754FA002208210548BDE807
:1037F8003840FDF74DBA00BF000C024000000240FF
:103808000010024000080240DFF834D0002103E035
:103818000C4B5B58435004310B480C4B42189A42EE
:10382800F6D30B4A02E0002342F8043B094B9A42C4
:10383800F9D3FFF71BFD00F011F8FEF74BFC7047BA
:103848000000022000390008000000200C000020C1
:103858000C000020C40F0020FEE7000070B50D4EDC
:103868000D4CA41BA4100025A54209D10B4E0C4CED
:1038780000F020F8A41BA4100025A54205D170BDB6
:1038880056F8253098470135EEE756F82530984721
:103898000135F2E7F8380008F8380008F838000869
:1038A800FC38000802440346934200D1704703F8ED
:1038B800011BF9E7F8B500BFF8BC08BC9E46704785
:0C38C800F8B500BFF8BC08BC9E46704775
:1038D4007D7D0000000000000000000102030406DA
:0C38E400070809000000000102030400B6
:0838F00008C9FF7F0100000080
:0438F800AD01000816
:0438FC008901000836
:0C39000001000000100000000024F40092
:0400000508003811A6
:00000001FF
